:040000008A11342805
:100008000234003401340134013401348A1586275E
:100018008A11F1007108F20072088A157A278A118C
:100028007208162808007808F101F1077708F0012E
:10003800F0078A11F4208A1183120313061306129B
:100048001030F900F90B26286400831203130708FF
:10005800F9007908FA00061706167A083328080006
:10006800C501C6018A1104208A11BF008A11052022
:100078008A11C0008A1106208A11C1008A1107203E
:100088008A11C2008A1108208A11C3008A11092026
:100098008A11C40083018A11F5297808F101F10752
:1000A8007708F001F0078A11F4208A1183160313E8
:1000B8008701790883120313870005101030FA00AE
:1000C800FA0B64286400831203130514FF308316A7
:1000D8000313870008008B0108308316031385007B
:1000E800A0308600FF308700831203179E019F010E
:1000F800831203138501051685120511000083126A
:100108000313051500008312031305110000831261
:10011800031305150000831203130516851000004C
:100128008312031385140000831203138510000043
:100138008312031385140000831203130616051493
:10014800061719308316031399002430980090304D
:100158008312031398000800790878040319B52856
:10016800B628EC28FD010314FD0DC6280130031044
:10017800F80DF90DFF3E031DBB280130FC007C087B
:10018800FD07C628F91FC928CA28BA28CC28CC28B0
:1001980079087B02031DD22878087A02031CD52827
:1001A800D628DD287808FA027908031CFB03FB022D
:1001B800DD2801300310F90CF80CFF3E031DDE2882
:1001C8000130FD02031DE928EA28CC28EC28EC2898
:1001D8007B08F901F9077A08F801F807F3280800FD
:1001E8001030F2007208F60026297108F300700832
:1001F800F2000F300310F30CF20CFF3E031DFE2833
:100208007108F5007008F4000130FF000310F40DC8
:10021800F50DFF0B0A2972087404F00073087504C1
:10022800F100701818291C298312031385161F2939
:100238008312031385120511000083120313051599
:10024800000026290130F6027608FF3A031D2D2901
:100258002E29F92883120313851000008312031333
:100268008514000083120313851000008312031302
:10027800851400000800F501F601710870040319DF
:10028800462947298529F7010314F70D5729013015
:100298000310F00DF10DFF3E031D4C290130F40051
:1002A8007408F7075729F11F5A295B294B295D293B
:1002B8005D2901300310F50DF60DFF3E031D5E2983
:1002C80071087302031D6A2970087202031C6D29E4
:1002D8006E2976297008F2027108031CF303F302F1
:1002E8007514762901300310F10CF00CFF3E031D44
:1002F80077290130F702031D822983295D29852981
:1003080085297608F101F1077508F001F0078C29B5
:100318000800853083120313A0008D30A1008A11D4
:100328006C268A110030F7002130F800F901031417
:10033800F90D8A1151208A1183120313B501B601F0
:1003480002303602013003193502031CAC29AD29ED
:10035800AF29F429F4290F303505B30000303605EC
:10036800B40034083304031DBA29BB29C829553001
:10037800A0008F30A1003608A301A3073508A20109
:10038800A2078A116C268A114F3083120313A0002A
:100398008F30A1003608F801F8073508F701F7078C
:1003A8008A155F278A1183120313B300B401330837
:1003B800A2003408A3008A116C268A110130831226
:1003C8000313B5070318B60A0030B6070230360221
:1003D800013003193502031CF229F329AF29F42946
:1003E80008008A116F208A11053083120313A000B8
:1003F8008F30A1008A116C268A118A110A208A116D
:1004080083120313BE003E08C5008A1169248A11AD
:10041800113083120313A0008F30A1008A116C26BB
:100428008A118A110A208A1183120313BE003E081A
:10043800C5004508413A031D222A232A2E2A4330A3
:10044800A0008F30A1008A116C268A118A11CD2252
:100458008A110C2A8312031345084F3A031D352AC3
:10046800362A412A4930A0008F30A1008A116C2613
:100478008A118A1160228A110C2A831203134508F3
:100488005A3A031D482A492A4D2A8A1186238A1175
:100498000C2A831203134508693A031D542A552A66
:1004A8000C2A8A116A258A110C2A0C2A0C2A0C2A71
:1004B8000C2A0C2A8A110028743083120313A00016
:1004C8008E30A1008A116C268A1183120313B7019A
:1004D800B7010314B70DB72A0030F7002130F80030
:1004E8003708B3003308F9008A1151208A118312A2
:1004F8000313B501B60102303702031C842A852A8A
:10050800892A0030B5004030B6008030360200300D
:1005180003193502031C912A922A942AB22AB22A74
:100528003608F801F8073508F701F7078A155F2735
:100538008A118A157A278A11013083120313B507A5
:100548000318B60A0030B6078030360200300319A7
:100558003502031CB02AB12A942AB22A0130B3000A
:100568003308B707B72A3708B300B4014008340284
:10057800031DC02A3F083302031CC32AC42A702A59
:10058800C52AA830A0008E30A1008A116C268A11D5
:100598000800FF3083120313B800FF30B900410888
:1005A800063A031DD82AD92AE22AC308031DDD2AE0
:1005B800DE2AE22AFF30B800A130B9004308013A28
:1005C800031DE72AE82AEC2AFF30B800A730B90053
:1005D8004308023A0319F12AF22AF92A4308033A8E
:1005E800031DF72AF82AFE2AF92AFF30B800BF307F
:1005F800B900FE2A3430F7000130F8008A155F2769
:100608008A11FF30831203133906031D0D2BFF30A7
:100618003806031D102B112B132B852B852B00302F
:10062800F7000030F8000A30B3003308F9008A11E7
:1006380051208A11343083120313A0008F30A10097
:100648008A116C268A1183120313B401B501662B33
:100658000030F7004030F800831203133408B30069
:100668003308F9008A1151208A11003083120313CC
:10067800B600A030B700552B3708F801F807360840
:10068800F701F7078A1117208A118A157A278A1124
:10069800013083120313B6070318B70A0030B707EF
:1006A800552B37083902031D5B2B3608380203180F
:1006B8005E2B5F2B402B602B0130B4070318B50A63
:1006C8000030B5073508803AB30080303302031D87
:1006D8006F2B42083402031C722B732B2C2B742BA8
:1006E8000030F7000030F800F9018A1151208A1112
:1006F800973083120313A0008E30A1008A116C2654
:100708008A110800243083120313A0008D30A10041
:100718008A116C268A118A1586278A11F730831266
:100728000313A0008E30A1008A116C268A110130B3
:10073800F0000030F1008A11F4208A118A1586270A
:100748008A11B93083120313A0008E30A1008A11D8
:100758006C268A11FF30F000FF30F1008A11F42076
:100768008A118A1586278A11E93083120313A0009B
:100778008E30A1008A116C268A110030F0000030FA
:10078800F1008A11F4208A118A1586278A11CA3045
:1007980083120313A0008E30A1008A116C268A11DF
:1007A8008A1586278A11E53083120313A0008E303C
:1007B800A1000030F7000030F8008A155F278A1181
:1007C80083120313B300B4013308A2003408A30052
:1007D8008A116C268A118A1586278A11E5308312B8
:1007E8000313A0008E30A1000030F7000030F8009D
:1007F8008A155F278A1183120313B300B4013308E3
:10080800A2003408A3008A116C268A118A1586274B
:100818008A11E53083120313A0008E30A100003046
:10082800F7000030F8008A155F278A118312031336
:10083800B300B4013308A2003408A3008A116C265F
:100848008A114A3083120313A0008E30A1008A1146
:100858006C268A118A1586278A110030F700003025
:10086800F800FF3083120313B3003308F9008A112C
:1008780051208A118A1586278A1160308312031342
:10088800A0008E30A1008A116C268A118A1586274D
:100898008A1183120313061205100613CE30A00026
:1008A8008D30A1008A116C268A118A1586278A1133
:1008B800831203130616051406170530A0008E30A0
:1008C800A1008A116C268A1108005B308312031379
:1008D800A0008F30A1008A116C268A11343083124F
:1008E8000313B7000130B8003808803AFF008130A0
:1008F8007F02031D812C43303702031C842C852C76
:10090800872CAB2CAB2C831203133808F801F8079B
:100918003708F701F7078A155F278A118A157A279A
:100928008A11013083120313B7070318B80A00307D
:10093800B8073808803AFF0081307F02031DA62CD3
:1009480043303702031CA92CAA2C872CAB2C0A3065
:100958008A157A278A114730F7000130F8008A157E
:100968005F278A1183120313B3003308C1002C30A8
:10097800A0008F30A1004108B300B4013308A200E1
:100988003408A3008A116C268A114830F700013018
:10099800F8008A155F278A1183120313B3003308FE
:1009A800C4002430A0008F30A1004408B300B40173
:1009B8003308A2003408A3008A116C268A11831216
:1009C8000313440AB3004008B5003F08B400EF2CF5
:1009D8000310B40DB50DB30BEC2C3408BF0035086B
:1009E800C000043041020318FA2CFB2C132D4408D4
:1009F800053A031D002D012D062D3F30BF000030A4
:100A0800C000372D4408063A031D0B2D0C2D372D39
:100A18007D30BF000030C000372D372D372D4408FA
:100A2800523A031D182D192D1E2D4830BF000030D5
:100A3800C000372D4408533A031D232D242D292D9A
:100A48005030BF000030C000372D4408543A031D11
:100A58002E2D2F2D372D6030BF000030C000372DD0
:100A6800372D372D372D4930F7000130F8008A151A
:100A78005F278A1183120313B3003308C3004308A6
:100A8800033A031D482D492D4E2D0430B300330879
:100A9800C2004E2D3430A0008E30A1004308B300B0
:100AA800B4013308A2003408A3004208B500B60117
:100AB8003508A4003608A5004008A701A7073F0885
:100AC800A601A6078A116C268A11080055308312E0
:100AD8000313A0008D30A1008A116C268A1183129D
:100AE8000313BA01BB018A110A208A118312031366
:100AF800B7003708C500802D1B3083120313A000F0
:100B08008F30A1008A116C268A118A110A208A1155
:100B180083120313B7003708C5000C30BC0000303F
:100B2800BD004508533A031D9A2D9B2D192EEC3014
:100B3800A0008D30A1008A116C268A11831203133C
:100B4800BA01BB010C30BC000030BD00BD1FAD2D8B
:100B5800AE2DB02D0B2E0B2E8A110A208A1183126E
:100B68000313B7003708C50041304502031CBD2DEB
:100B7800BE2DCA2D473045020318C32DC42DCA2DDA
:100B88004508C93EB7003708C500EC2D303045028E
:100B9800031CCF2DD02DDC2D3A3045020318D52D5E
:100BA800D62DDC2D4508D03EB7003708C500EC2D02
:100BB800AF30A0008D30A1004508B700B801370854
:100BC800A2003808A3008A116C268A11FE2DEC2D8C
:100BD800831203133C0AB7004508B800B901F72D82
:100BE8000310B80DB90DB70BF42D3808BA0439083D
:100BF800BB04FE2DFC3083120313BC070318BD0A87
:100C0800FF30BD07BD1F092E0A2EB02D0B2E1D303B
:100C1800A0008E30A1003B08A301A3073A08A20157
:100C2800A2078A116C268A11802D831203134508A6
:100C3800523A031D202E212E402EDA30A0008E308D
:100C4800A1003B08A301A3073A08A201A2073B0899
:100C5800F801F8073A08F701F7078A155F278A119C
:100C680083120313B700B8013708A4003808A50099
:100C78008A116C268A11802D831203134508483A7D
:100C8800031D472E482E4C2E8A118D218A11802D46
:100C9800831203134508583A031D532E542E802DF2
:100CA8000030F7000030F8008A155F278A113C30C1
:100CB80083120313A0008F30A1008A116C268A11B9
:100CC8006B2E6B2E802D802D802D802D802D080081
:100CD800223083120313A8002808AC00E42F32083E
:100CE800253A0319782E792E7E2E32088A157A270E
:100CF8008A11E42FAD01972EFF2FB92EB92EAD170B
:100D0800B92E2C08840083130008A8002808B20014
:100D18000230A8002808AC07912E32088A157A27D5
:100D28008A11E42FB92E831203132108A900200881
:100D3800A8000130A0070318A10A2908FF00280805
:100D480084008A1500258A11B200003A0319FF2F82
:100D5800633A0319852E073A0319B92E0D3A031978
:100D6800B92E113A0319832E912E83120313AD1B4A
:100D7800BE2EBF2EDA2E2C08840083130008AE0086
:100D8800840A0008AF000230A8002808AC07AF1F8B
:100D9800CE2ECF2E512F0330A8002808AD04AE095F
:100DA800AF09AE0A0319AF0A512F512F2C0884003E
:100DB80083130008AE00840A0008AF000230A800C0
:100DC8002808AC07512F512FB2010314B20D320875
:100DD800053A031DF02EF12EF32E5A2F5A2F320802
:100DE800A8002807123E84008D300318013EFF003A
:100DF8008A1500258A11A9008A1500258A11AA00DA
:100E08002A082F02031D0A2F29082E0203180D2F66
:100E18000E2F102F5A2F5A2F0130A8002808B2077A
:100E28003208053A031D192F1A2FF32E5A2F5A2F5D
:100E3800B2010314B20D3208043A031D242F252FE2
:100E4800272F5A2F5A2F3208A80028071C3E840043
:100E58008D300318013EFF008A1500258A11A9006C
:100E68008A1500258A11AA002A082F02031D3E2F81
:100E780029082E020318412F422F442F5A2F5A2F88
:100E88000130A8002808B2073208043A031D4D2F84
:100E98004E2F272F5A2F5A2F5A2F2D088039003AB4
:100EA8000319E82E803A03191C2F5A2F2D080339ED
:100EB80003195F2F602F652F2D308A157A278A1125
:100EC800652F831203133208A8002808AB00D62F19
:100ED800C82F0A30F8000030F9002B08A8002807AE
:100EE800123E84008D300318013EFF008A1500254C
:100EF8008A11F0008A1500258A11F1002F08F301E4
:100F0800F3072E08F201F2078A113F218A117108AE
:100F1800FB01FB077008FA01FA078A11B0208A1151
:100F28007808303E83120313A9002908B200D12F94
:100F38002B08A80028071C3E84008D300318013EAA
:100F4800FF008A1500258A11F0008A1500258A11EC
:100F5800F1002F08F301F3072E08F201F2078A11B6
:100F68003F218A1170080F39863E84008E3003189D
:100F7800013E83120313FF008A1500258A11A90078
:100F88002908B200D12FD12F2D088039003A031932
:100F98006D2F803A03199C2FD12F32088A157A2792
:100FA8008A11D62FFF3083120313A8002808AB0735
:100FB8002B08FF3A031DE12FE22FC82FE42FE42F5F
:100FC800831203132108A9002008A8000130A007F4
:100FD8000318A10A2908FF00280884008A1500259B
:100FE8008A11AA002A08B200B208031DFC2FFD2F9F
:080FF800732EFF2FFF2F0800EC
:101A0000FF1B0A2D83137F1883170008840A03190C
:101A1000FF0A08007F087F398A000408840A031936
:101A2000FF0A8200013400340A3400346434003484
:101A3000E8340334103427340134003410340034D3
:101A40000034013400341034443469346134673470
:101A50003A342034433461347234743420344D3495
:101A6000553453345434203462346534203464346F
:101A70006934733463346F346E346E346534633474
:101A80007434653464342E34203441346E34793403
:101A900020346B3465347934203474346F3420341A
:101AA00067346F340A345F3400340A3449346E3496
:101AB0007434653472346134633474346934763424
:101AC000653420344D346F34643465342C34203420
:101AD00061346E34793420346B3465347934203495
:101AE00074346F34203467346F3420346F3472347C
:101AF00020345834203474346F34203471347534C5
:101B0000693474343A340A34003444346934613406
:101B100067346E346F34733474346934633420340E
:101B2000683465347834643475346D3470342034FA
:101B30006D346F34643465343A3420346634693437
:101B400072347334743420343534313432342034C4
:101B5000623479347434653473343A3400340A347A
:101B60004534723472346F3472342C34203425345A
:101B7000633420346934733420346F3475347434EE
:101B800020346F3466342034723461346E346734F8
:101B90006534203430342D344634003443346834D2
:101BA00061346E34673469346E346734203474348D
:101BB0006F3420344F3446344634203428346C3467
:101BC0006F3467346934633461346C3420343134B5
:101BD00029340A345F3400340A3445346E347434A2
:101BE000653472342034613464346434723465345E
:101BF00073347334203469346E34203434346234B2
:101C0000313436343A345F3400340A34443469347D
:101C1000613467346E346F347334743469346334CC
:101C20007334203463346F346D3470346C34653401
:101C3000743465342E340A3400340A345334653431
:101C40007434743469346E346734203461346434E9
:101C500064347234653473347334203474346F34C0
:101C600020342534783400345234613453343A34D7
:101C7000253478340A345234613442343A342534C9
:101C800064340A3452346F3442343A342534643480
:101C90000A34003450344F345234543443342034F2
:101CA00077347234693474346534203474346F3466
:101CB000203430347834663466340A345F34003487
:101CC00054346F34673467346C346534203457349B
:101CD000523420345234443420344D345234453458
:101CE00051340A345F34003452344F344D3420348C
:101CF000643475346D3470342034663472346F3427
:101D00006D3420343C343C343C3400343034313491
:101D10003234333434343534363437343834393477
:101D200061346234633464346534663400343E3480
:101D30003E343E34203445346E34643420346F34C1
:101D400066342034523441344D342E340A34003455
:101D50003E343E343E34203445346E3464342034D2
:101D60006F346634203452344F344D342E340A34B8
:101D7000003453345234203474346534733474343E
:101D80003A34203430347834663466346634663419
:101D90000A3400343334203450344F345234543401
:101DA00043342034723465346134643473340A3417
:101DB0005F3400340A34523465346134643420347E
:101DC0004034253478343A342034253478340A3495
:101DD00000345334523420347434653473347434DE
:101DE0003A3420343034783430340A3400345334C4
:101DF0005234203474346534733474343A342034B7
:101E00003034783431340A34003452344534413477
:101E1000443459340A344C346F34613464343F34BC
:101E200000340A345B344F3441345A3469345D34FD
:101E30003F345F3400340A345B3453345234483412
:101E400058345D345F34003452346F3453343A3490
:101E5000253478340A3400340A34433454343A3460
:101E6000253478340A340034523441344D3420342B
:101E70003C343C343C3400340A34453478346934DE
:101E800074340A3400345234613444343A340A34F9
:101E9000003452346F3444343A340A340034303429
:101EA000783425347834203400340A3440342534EE
:101EB00078343A3400340A344E343A3400347808F2
:101EC000F101F1077708F001F0078A11F4208A1573
:101ED0008312031306121030F900F90B6D2F640002
:101EE000831203130708F9007908FA0006167A0826
:101EF000792F0800F0007C2F831203130C1E812F12
:101F0000822F7C2F832F700899000800872F83125F
:101F100003138C1E8C2F8D2F872F8E2F1A08902F36
:021F20000800B7
:02400E00D43F9D
:00000001FF
